:1000000045C0000060C000005EC000005CC0000091
:100010005AC0000058C0000056C0000054C0000084
:1000200052C00000DCC000004EC000004CC0000008
:100030004AC0000048C0000046C0000044C00000A4
:1000400042C0000040C000003EC000003CC00000B4
:100050003AC0000038C0000036C0000034C00000C4
:1000600032C0000030C000002EC000002CC00000D4
:100070002AC0000028C0000026C0000024C00000E4
:1000800022C0000020C000001EC0000011241FBEBE
:10009000CFEFD0E1DEBFCDBF11E0A0E0B1E0E4E200
:1000A000F3E000E00BBF02C007900D92A430B1074F
:1000B000D9F721E0A4E0B1E001C01D92A630B2075B
:1000C000E1F7C4D02DC19CCF80E487B987E886B919
:1000D000089597B1987F892B87B986B1806486B9D6
:1000E0003699FECF84B195B1089585B58C6085BDF4
:1000F00080E887BF89EF83BD7894089590919B0035
:1001000095FFFCCF80939C0008950F931F93CF938E
:10011000DF938C01C0E0D0E002C0F0DF2196F8014F
:10012000EC0FFD1F80818111F8CF8AE0E7DFDF91BE
:10013000CF911F910F910895CF93DF93CDB7DEB785
:100140002A970FB6F894DEBF0FBECDBF4AE050E04D
:10015000BE016F5F7F4FA7D0CE010196D6DF2A96F2
:100160000FB6F894DEBF0FBECDBFDF91CF910895DB
:100170005D9BFECF8CB908950F931F93CF93DF93B0
:100180008C01C0E0D0E002C0F3DF2196F801EC0F53
:10019000FD1F80818111F8CF8AE0EADFDF91CF91E6
:1001A0001F910F910895CF93DF93CDB7DEB72A97B4
:1001B0000FB6F894DEBF0FBECDBF4AE050E0BE01DF
:1001C0006F5F7F4F70D0CE010196D6DF2A960FB6B3
:1001D000F894DEBF0FBECDBFDF91CF9108951F927F
:1001E0000F920FB60F9211240BB60F922F933F93DD
:1001F0004F935F936F937F938F939F93AF93BF932F
:10020000CF93DF93EF93FF9381E063DFEC01909353
:1002100005018093040190DF80E091E0ADDFCE0125
:10022000C2DFFF91EF91DF91CF91BF91AF919F918D
:100230008F917F916F915F914F913F912F910F908F
:100240000BBE0F900FBE0F901F9018950BD018D0BB
:1002500081B3886081BB82B1826082B935DF45DFBE
:100260007894FFCF8BB182608BB9109290008FECA5
:1002700089B98AB180698AB98AB188608AB90895D2
:10028000EBE9F0E0808182608083109298008FEC2F
:1002900080939900EAE9F0E0808180698083808121
:1002A0008860808308954532510518F4423008F083
:1002B00004C0FB011082CB010895BB274A3031F402
:1002C000992322F4BDE2909581959F4F01C0BB27F1
:1002D000FB015527AA27880F991FAA1FA41710F002
:1002E000A41B83955051B9F7A05DAA3308F0A95D0E
:1002F000A193009779F7B111B1931192CB0100C08E
:10030000DC01FC01672F71917723E1F7329704C07C
:100310007C916D9370836291AE17BF07C8F3089507
:04032000F894FFCF7F
:0403240079203A0002
:00000001FF
